:020000040800F2
:10000000380D00248503000823690008C163000837
:1000100021690008F51900088D780008000000002B
:10002000000000000000000000000000E56B000878
:10003000311E00080000000025690008E76B000879
:10004000A3030008A3030008A3030008A3030008F8
:10005000A3030008A3030008A3030008A3030008E8
:10006000A3030008A3030008A3030008A3030008D8
:10007000A3030008A3030008A3030008A3030008C8
:10008000A3030008A3030008A3030008A3030008B8
:10009000A3030008A3030008A3030008A3030008A8
:1000A000A30300085D6D0008A3030008A303000874
:1000B000A3030008A3030008A3030008A303000888
:1000C000A3030008A3030008A3030008A303000878
:1000D000A3030008A3030008A3030008A303000868
:1000E000A3030008A303000800000000A303000806
:1000F000696D0008A3030008A3030008A303000818
:10010000A3030008A3030008A3030008A303000837
:10011000A3030008A3030008A3030008A303000827
:10012000A3030008A3030008A3030008A303000817
:10013000A3030008A3030008A3030008A303000807
:1001400000000000000000000000000000000000AF
:10015000A3030008A3030008A3030008A3030008E7
:10016000A3030008A3030008A3030008A3030008D7
:10017000A3030008A3030008A30300080000000075
:10018000A3030008A3030008A3030008A3030008B7
:10019000A3030008A3030008A3030008A3030008A7
:1001A000A3030008A3030008A30300080000000045
:1001B000A3030008A3030008A3030008A303000887
:1001C000A3030008A30300080000000000000000D3
:1001D0000000000000000000A30300080000000071
:1001E000000000000000000000000000000000000F
:1001F0000000000000000000A3030008A3030008A3
:10020000A3030008A303000800000000A3030008E4
:10021000A3030008A3030008A3030008A303000826
:10022000A303000800000000A30300080000000072
:10023000A3030008A303000800000000A3030008B4
:10024000A3030008A3030008A3030008A3030008F6
:10025000A3030008A3030008A3030008A3030008E6
:10026000A3030008A3030008A3030008A3030008D6
:10027000A3030008A3030008A30300080000000074
:10028000A3030008A3030008A3030008A3030008B6
:1002900000000000A3030008A30300080000000002
:1002A00000000000A3030008A3030008A303000844
:1002B000A3030008A3030008A3030008A303000886
:1002C000A3030008A3030008A303000800F002F83A
:1002D00000F049F80AA090E8000C82448344AAF197
:1002E0000107DA4501D100F03EF8AFF2090EBAE895
:1002F0000F0013F0010F18BFFB1A43F0010318475A
:100300000C8500002C850000103A24BF78C878C105
:10031000FAD8520724BF30C830C144BF04680C600B
:10032000704700000023002400250026103A28BF53
:1003300078C1FBD8520728BF30C148BF0B60704757
:10034000662908F0A781002070471FB508F023F93F
:1003500000F0E6FB04000020002107F095FFE060BC
:100360001FBD10B510BD00F0DFFC1146FFF7EDFF1B
:1003700007F026FF00F0FDFC03B4FFF7F2FF03BC1B
:1003800000F034FD0A4880470A4880470A48004781
:10039000FEE7FEE7FEE7FEE7FEE7FEE7FEE7FEE735
:1003A000FEE7FEE705480649064A074B704700008E
:1003B000391E0008856C0008CD02000838070024AB
:1003C000380D0024380900243809002453EA020CAF
:1003D00000F069802DE9F04B4FF00006002B1FBFA5
:1003E000B3FA83F503FA05F424FA05F65E4012BF6A
:1003F0001643B2FA82F502FA05F4C5F120051EBFD4
:1004000022FA05FC44EA0C04203556EA044C4FEA73
:10041000144418BF641C4FF000084FF000099042CC
:1004200071EB030C39D3002919BFB1FA81F701FA36
:1004300007F6B0FA80F700FA07F6C7F120071EBFEB
:1004400020FA07FC46EA0C062037B6FBF4FCA7EBC3
:100450000507103F07F01F0BCBF120060CFA0BFB32
:100460002CFA06F644BFB3460026202FA4BF5E46F2
:100470004FF0000B5BEA060C08BF4FF0010B19EBC5
:100480000B09ABFB027C48EB0608C01B06FB02CC49
:100490000BFB03CC71EB0C01C1E70B460246414656
:1004A0004846BDE8F08B13B54FF000004FF0000157
:1004B000AFF30080BDE81C40704700000FB41CB5CE
:1004C000084B06AA7B4469460090059800F00FFB94
:1004D00004460020694600F01DFB20461CBC5DF868
:1004E00014FB00004D0600002DE9F0474FF0000A14
:1004F00089460446C0F820A02046E16888470028C5
:1005000076D0252806D0D4E901219047206A401CE6
:100510002062F1E7E168204600258847C4F81CA066
:1005200006460027C4F818A02A2E09D0304607F046
:1005300065FD38B304EB8708303EC8F8186019E051
:1005400059F8041B204604EB87029161E168884753
:10055000012F064618D1E069002820DA25F0200591
:100560001DE0D8F8180000EB800006EB40003038A2
:10057000C8F818002046E1688847064607F03EFDA7
:100580000028EED1012F0AD02E2E08D12046E16896
:1005900088477F1C0646022F45F02005C4DBA06972
:1005A000002803DA404245F00105A061E80701D0C8
:1005B00025F01005B6B1A6F14100192802D8203661
:1005C00045F400654A463146204625604D46FFF712
:1005D000B7FE58B1012806D0ED1D25F0070000F147
:1005E000080989E704E005F1040985E730468AE750
:1005F000206ABDE8F08710B5203AC0F00B80B1E862
:100600001850203AA0E81850B1E81850A0E8185047
:10061000BFF4F5AF5FEA027C24BFB1E81850A0E850
:10062000185044BF18C918C0BDE810405FEA827C6A
:1006300024BF51F8043B40F8043B08BF7047D20781
:1006400028BF31F8023B48BF11F8012B28BF20F822
:10065000023B48BF00F8012B70474FF0000200B585
:10066000134694469646203922BFA0E80C50A0E8D5
:100670000C50B1F12001BFF4F7AF090728BFA0E883
:100680000C5048BF0CC05DF804EB890028BF40F84F
:10069000042B08BF704748BF20F8022B11F0804F91
:1006A00018BF00F8012B704770477047704710B5AE
:1006B00000F03AFA006810BD10B5044600F034FAB4
:1006C000046010BD70472DE9FF4F0C461E464FF0E9
:1006D000FF378BB0D2E90001DDF860800A908A46CE
:1006E000C1F30A5505B93D46002108464FF0000008
:1006F000BAF1000F00F4400005DA00EB80004FF47F
:10070000400101EA50004FEA9059B9F1010F00DDB4
:10071000B9460A9850EA4A000ED044F61050A5F2A5
:10072000FF3545432F14B8F1000F1ED07542291E26
:100730001EDDC9F100021CE0B8F1010F4FF000000E
:1007400001D0302103E0F24305E02154401CB042C7
:10075000FBDB30460022002121540B99C1F80880B0
:10076000C1E900200FB0BDE8F08FBD1B6D1CDEE7B6
:100770004A4600DA694206A800F060FA06AB93E840
:10078000070003AB83E8070050460A9900F035FBE9
:100790008DE80700A0F500501F3800900398002D49
:1007A0000ADD42F21F014A460844002303A90390D0
:1007B000684600F09EFD09E0A0F500504A461F384B
:1007C000002303A90390684600F0A8FD8DE8070008
:1007D0000004000C03D04FF0FF30410800E0104649
:1007E000B8F1000F03D00022009215461EE0751EDE
:1007F00005D400F09DF9303262556D1EF9D5B3462F
:100800000122084302D000227F1C04E02078302817
:1008100001D100227F1E002A099784D01DE0112DEE
:1008200007DA00F085F9303262556D1C50EA01029A
:10083000F5D1084302D00098C8B10EE00021681E2F
:1008400005E0235C625C63542254401E491C8142D3
:10085000F7DBAB46A81B401E0990002004F80B00F4
:100860000B98099AC0F80880C0E9002B7AE7112696
:100870004FF0000857E72DE9F04F88460446D21D97
:1008800022F0070191B0D1E90001CDE90A0106F09B
:10089000FEFF02460B98C00F01D02D2007E0206814
:1008A000810701D52B2002E0202101EAC000032AA4
:1008B000099001D0072A05DB03464146204600F097
:1008C0007DF90BE12078800601D5E06900E0062083
:1008D000B8F1650F814606D0B8F1660F18D0B8F1AF
:1008E000670F70D131E00020B9F1110F009001DBEA
:1008F000112301E009F101030AAA01A90CA8FFF7DD
:10090000E2FEDDE90C70002609F10105834647E0AF
:1009100001204B4600904FF000470AAA01A90CA8FD
:10092000FFF7D1FEDDE90DB00C995D46002610B948
:1009300009F101000D18B9EB050003D4C0F1FF3631
:1009400009F10105A5EB09002BE0B9F1010F01DA6E
:100950004FF001090020B9F1110F0090484601DD68
:10096000112300E003460AAA01A90CA8FFF7ABFE79
:10097000DDE90C704D4600268346207800070AD436
:10098000AB4500DA5D4601A8012D04DD411911F8DF
:10099000011C302907D04F4502DA17F1040F04DAA1
:1009A000012082460FE06D1EEEE7002F02DCED1BFA
:1009B0003E4403E0781CA84200DD7D1CB81B00F11A
:1009C000010A4FF000472078000703D4AA4501DB55
:1009D0004FF0FF3A0021B7F1004F0DF143088DF8B9
:1009E000431024D002202B23002F01DA7F422D2335
:1009F0000A21021EA0F1010000DC5FB197FBF1FCAF
:100A000097FBF1F201FB1C7C17460CF1300C08F847
:100A100001CDEEE7A8F1010003702188090501D599
:100A2000452100E06521A0F1010800F8011C0998AA
:100A30000FA9A1EB0807FF1D00B10120411901EB2F
:100A4000EA70A1693844081A401EA0612078C006E7
:100A500002D42046AFF30080099828B1D4E90121DF
:100A60009047206A401C20622078C00622D520468C
:100A7000AFF300801EE0002E04DBB34502DD01A8C9
:100A8000805D00E03020D4E901219047206A401CBD
:100A90002062761CAAF101005FEA000A0AD100F088
:100AA0003FF8C0680168405CD4E901219047206AA2
:100AB000401C2062281EA5F10105DCDC07E0D4E91A
:100AC000012118F8010B9047206A401C2062381E53
:100AD000A7F10107F3DC2046AFF30080032011B03B
:100AE00041E6000001694A1C02610878704700B5C0
:100AF0008FB0CDE901310021059105497944CDE957
:100B0000031011466846FFF7EFFC0FB000BD000070
:100B1000E5FFFFFF0A6802F8010B0A60704700005A
:100B200000487047F406002400487047D4060024AB
:100B300030B5B0F10A024FEA900E71F100034EEAAF
:100B4000817EB0EB0E0061EB91014FEA101E4EEA80
:100B5000017E10EB0E0041EB11114FEA102E4EEA10
:100B6000016E10EB0E0041EB11214FEA104E4EEAE0
:100B7000014E10EB0E0041EB1141401841F1000114
:100B80004FEAD00040EA41704FEAD10110EB8005F6
:100B90004FEA810444EA907444EB01046D1944EB7C
:100BA0000404521BA3414FF0000348BF0A3200D592
:100BB00030BD401C41F1000130BD00002DE9F04185
:100BC0001F46044603260168072A01F4006004DB7F
:100BD00008B116A505E016A503E008B115A500E0CB
:100BE00015A521F010002060A069C01EA0610FB102
:100BF000401EA0612046AFF300804FB1D4E901212F
:100C000038469047206A401C2062C01C206206E0E3
:100C1000206AFAE7D4E9012115F8010B9047761E06
:100C2000F8D22046AFF30080BDE8F0814E414E007F
:100C30006E616E00494E4600696E66002DE9F04710
:100C4000814616468AB0354878440DC88DE80D00B7
:100C500032487844801C03AC0DC884E80D0041F68E
:100C60009B300844372190FBF1F290FBF1F5A5F1A0
:100C7000800501FB12041B3C02D56442012000E008
:100C80000020DFF898A080460027FA44AAF1BE0AA7
:100C90000EE0E0070AD03246684607EB4701012321
:100CA0000AEB810100F03AFB8DE8070064107F1C1D
:100CB000002CEED1194F7F44AE3F19E0E80715D064
:100CC00007EB04100DF1180A90E80E008AE80E00F8
:100CD000C068F04201D1981908903246012306A954
:100CE00003A800F01BFB03AB83E807006D10641C36
:100CF000002DE3D14FF0010332466946B8F1000FF1
:100D000003A802D000F0F5FA01E000F007FBC9E902
:100D10000001C9F808200AB0BDE8F087A87B0000F0
:100D200000487047D40600247546FFF7F9FFAE4629
:100D300005006946534620F00700854618B020B5E7
:100D4000FFF730FBBDE820404FF000064FF00007F2
:100D50004FF000084FF0000B21F00701AC46ACE863
:100D6000C009ACE8C009ACE8C009ACE8C0098D46D0
:100D7000704710B50446AFF300802046BDE8104030
:100D8000FFF7FABA4FF0013C50F8042B51F8043B3E
:100D90009A4215D1A2EB0C03934313EACC130BD167
:100DA00050F8042B51F8043B9A4209D1A2EB0C03F2
:100DB000934313EACC13E7D04FF00000704700BF15
:100DC000D01A01BAB1FA81F101F0180122FA01F04A
:100DD000CB40C1F12001DBB2C0B2C01A2CFA01F342
:100DE000D11A914311EAC311E6D170470149182085
:100DF000ABBEFEE72600020070475FEA400C08BF6A
:100E000091F0000F4FEA8C234FEAC12243EA51517F
:100E10004FEA1C5018BF00F5F0404FEA300018BFF1
:100E200041F000415FEA6C5C00F02980BCF1FF3FBB
:100E300008BF40F080407047130C06BF12044FF00B
:100E4000100C4FF0000C130E04BF12020CF1080C32
:100E5000130F04BF12010CF1040C930F04BF920096
:100E60000CF1020CD30F04BF52000CF1010C11461F
:100E70004FF00002A0F11F00A0EB0C00704711F032
:100E8000004F08BF704731F000413FF4D5AF0B0C65
:100E900006BF09044FF0100C4FF0000C0B0E04BFFE
:100EA00009020CF1080C0B0F04BF09010CF1040C32
:100EB0008B0F04BF89000CF1020CCB0F04BF49005B
:100EC0000CF1010CCCF12003A0EB0C0022FA03F38F
:100ED00002FA0CF241EA030100F10100704720F030
:100EE0007F4C80EA030023F07F47ACEB070303F558
:100EF0007C5300F0004003F1FF032DE980494FEAE5
:100F0000154B09B44FEA144325EA0B4E24EA034873
:100F10000FF2042606EB132749083E785FEA3202F7
:100F200003FB0667C7F5000707FB06F64FEA5437D1
:100F30004FEAD64606F1020607FB066CCCF1005CD0
:100F40004FEA1C472CEA074C07FB06F40CFB06F59E
:100F500004EB15464FEA961634BF00204FF00040D0
:100F60004FEAD13706FB07FC4FEA1C4C0CFB0BF792
:100F7000D21B03FB0CF761EB07010CFB0EF7B0EB88
:100F8000074072EB17420CFB08F734BFA2EB074295
:100F9000B2EB074261EB17414FEA0C444FEA91076D
:100FA00006FB07FC4FEA1C4C0CFB0BF7B0EBC740F1
:100FB00072EB573203FB0CF734BFA2EBC742B2EB24
:100FC000C74261EB57310CFB0EF7B0EBC70072EB79
:100FD00057720CFB08F734BFA2EBC702B2EBC70293
:100FE00061EB5771039F4FEA816141EA921104EB73
:100FF000CC044FEAD1374FEA826206FB07FC42EA93
:1010000090124FEA80604FEA1C4C0CFB0BF7D21B8E
:1010100003FB0CF761EB07010CFB0EF7B0EB07408D
:1010200072EB17420CFB08F734BFA2EB0742B2EB9E
:10103000074261EB17414FEA8C554FEA910704EBE9
:101040009C2406FB07FC4FEA1C4C0CFB0BF7B0EB97
:10105000C74072EB573203FB0CF734BFA2EBC74219
:10106000B2EBC74261EB57310CFB0EF7B0EBC70098
:1010700072EB57720CFB08F734BFA2EBC702B2EB5E
:10108000C70261EB577115EB4C254FEA816141EACC
:1010900092114FEA82624FEAD13742EA901206FB80
:1010A00007FC44F100044FEA80604FEA1C4C0CFB43
:1010B0000BF7D21B03FB0CF761EB07010CFB0EF7E0
:1010C000B0EB074072EB17420CFB08F734BFA2EB02
:1010D0000742B2EB074261EB174115EB1C154FEAD3
:1010E000813141EA92414FEA823242EA90424FEA2C
:1010F00080304FEA0C7644F1000448EA03434EEA9C
:101100000B484FF0000EB2EB080C71EB030724BF45
:10111000624639464EEB0E0E4FF0000B001852415E
:1011200049414BEB0B0BB2EB080C71EB03077BF166
:10113000000B24BF624639464EEB0E0E4FF0000BFB
:101140000018524149414BEB0B0BB2EB080C71EB11
:1011500003077BF1000B24BF624639464EEB0E0EAF
:1011600051EA020718BF46F0010616EB0E7655F15C
:10117000000254F1000103D5BDE88901BDE80088F3
:10118000BDE88901BDE80048B619524141EB0101B3
:10119000A3F10103704780807F7E7D7C7B7A797824
:1011A000777676757473727171706F6E6E6D6C6C2C
:1011B0006B6A6A69686867666665646463636261CE
:1011C0006160605F5F5E5E5D5D5C5C5B5B5A5A594F
:1011D00059585857575656555555545453535252BB
:1011E0005251515050504F4F4F4E4E4D4D4D4C4C13
:1011F0004C4B4B4B4A4A4A4949494848484747475C
:101200004746464645454544444444434343434298
:10121000424242414141002B9C4630D477002BD0C2
:101220001CB54FEA370703B44FF010004FF0100120
:10123000BAF1000F06D0BCF1000FDCBF40F008008F
:1012400040F008014FF000000FBCBDE810400BF16A
:10125000010BBBF1010F08BF5FEA170722BF12F1B4
:10126000010211F101014FF0004143F1000300F0D0
:10127000004043EA00007047F9D35708D0E746EA38
:10128000064613F1400F4FEA16461FDD13F1200FFB
:10129000DFBF16430A46002120335B42BED0C3F1B4
:1012A000200746EA064602FA07F74FEA164646EADC
:1012B0000706C3F1200722FA03F201FA07F721FA21
:1012C00003F14FF0000342EA0702A7E746EA0206ED
:1012D00046EA06464FEA164646EA0106BCBF46EA1B
:1012E0000646360C4FF000034FF000024FF00001AD
:1012F00094E72DE9804C9A46934670B491E8380003
:1013000007C831EA400C48BF34EA430C03D5FFF765
:10131000E6FDFFF780FFF0BCBDE8008C2DE9804CB6
:101320009A46934670B491E8380007C810F0804F91
:1013300008BF13F0804F03D100F005F8FFF76BFFF3
:10134000F0BCBDE8008C20F07F4780EA030023F06A
:101350007F4C07EB0C03A3F57C5300F00040A3F196
:10136000FE0392F0000F00F0B38095F0000F00F044
:1013700077802DE901494FEA11404FEA144621EAEE
:10138000004800FB06FC24EA064708FB06F607FBBC
:1013900008F800FB07F718EB06484CEB164C4FEA31
:1013A000124B18EB07484FEA15464CEB174022EA60
:1013B0000B4E0BFB06FC25EA06470EFB06F607FB69
:1013C0000EFE0BFB07F71EEB064E4CEB164C4FF0D8
:1013D00000061EEB074E4CEB174B18EB0B0840F1C9
:1013E000000018EB0E0B58EB000840F100008F1ABC
:1013F0004FF000013CBFC943661B14BFB5EB040CA2
:1014000000213CBFC943F61B4FEA17444EEA8E0E3B
:1014100027EA04454FEA1C4704FB07622CEA074C05
:1014200005FB07F70CFB05F604FB0CFC16EB074667
:1014300042EB174216EB0C4642EB1C421BEB060636
:1014400058EB0202414146EA9E0601D5BDE80189FA
:10145000B619524141EB0101A3F10103BDE8018935
:101460004FEA14454FEA114724EA054621EA074CA2
:1014700005FB07F406FB07F70CFB06F105FB0CFC6C
:1014800011EB074144EB17444FEA124711EB0C41B3
:1014900044EB1C4422EA074C05FB07F206FB07F766
:1014A0000CFB06F605FB0CFC16EB074642EB17425D
:1014B00016EB0C4642EB1C456A1854F1000148BF7C
:1014C0007047B619524141EB0101A3F10103704786
:1014D00095F0000F37D04FEA11424FEA144721EA46
:1014E000024624EA074C02FB07F106FB07F70CFB58
:1014F00006F402FB0CFC14EB074441EB17414FEAE6
:10150000154714EB0C4441EB1C4125EA074C02FB48
:1015100007F506FB07F70CFB06F602FB0CFC16EBC7
:10152000074645EB174516EB0C4645EB1C421219D6
:1015300051F1000148BF7047B619524141EB01011A
:10154000A3F1010370474FEA14454FEA114724EA1B
:10155000054621EA074C05FB07F106FB07F70CFBE4
:1015600006F24FF0000605FB0CFC12EB074241EBC4
:10157000174112EB0C4251EB1C4148BF70479218C7
:1015800041EB0101A3F101037047000010B532499E
:1015900004460068884202D0304A904202D1D1F815
:1015A000080302E02E48D0F8080310F4403F10D0A2
:1015B00003F0ECFD6168B1F5803F06D0B1F5003F66
:1015C00003D0B1F5403F26D101E0090C17E08008B7
:1015D00021E000214FF4002002F0BEFE61688A0382
:1015E000920B18D18A140C2A15D2DFE802F01406E7
:1015F00006060606060B0D0F1113890C4900B0FBF9
:10160000F1F008E0000906E0400904E0800902E08A
:10161000C00900E0000A13494008884204D8206845
:10162000816821F4407108E00F49884207D820689A
:10163000816821F4407141F48071816010BD0B49D3
:1016400088422068816804D821F4407141F4007117
:10165000F3E741F44071F0E700200240002102402E
:1016600000600258105E5F0020BCBE0040787D0123
:1016700010B5846B216E11F0500F06D0216EC90693
:1016800025D5204601F06AFC10BD206E40F40070A4
:10169000206620680168090707D504F0A4FE90B110
:1016A0002068C068800403D50DE0C06880070AD1B7
:1016B000206E20F480702066206EC00403D4206E5B
:1016C00040F001002066204601F046FC10BDA16DEF
:1016D000C96CBDE81040084710B5806B016E41F041
:1016E00040010166416E41F00401416601F036FCA3
:1016F00010BD10B5806B01F030FC10BD70B5044614
:10170000006881688268C1F3400112F0010F28D09F
:1017100039BB816801F00D01012914D18168124A99
:101720001140891C816021680320086002F0F8FAEA
:10173000054612E002F0F4FA401B02280DD9206899
:101740008068C00709D0206E40F010002066606EEF
:1017500040F001006066012070BD20688068C0070D
:10176000E8D1002070BD0000C0FFFF7F70B50446C7
:101770000068816811F0010F40D18168204A114250
:101780002DD18168D5432940491C816002F0C8FAF7
:101790001C49064620681C4B884201D0984201D162
:1017A0001A4A00E01A4A9268984202F01F0200D0DA
:1017B000014681421DD0E2B120E0816811F0010FA5
:1017C00003D181682940491C816002F0A9FA801B7D
:1017D00002280ED920680068C043C00709D0206ED7
:1017E00040F010002066606E40F00100606601204D
:1017F00070BD20680168C943C907DED1002070BDF3
:101800003F000080002002400021024000230240EF
:101810000063025870B50E4604462DED028BB0EE03
:10182000408ADFED652A9FED653A90ED191AD0EDFB
:101830001A1A80ED1B1AC0ED1C1AD0ED1F0A90ED8C
:10184000210A90ED202A41EE620A01EEE22A70EEB2
:10185000C00A00EE830A80ED210A90ED220A72EEA2
:10186000400A00EE830A84ED220A94ED450A06F050
:101870004BF8B0EE401A94ED450AF0EE418A06F0BE
:1018800009FAD4ED211AF0EE400A94ED220A21EE75
:10189000E81A4B4D00EE601A61EEA10A40EE000A14
:1018A00085ED001AB0EE600A06F0BEFAF6EE000A08
:1018B000B4EEE00AF1EE10FA06DDD5ED000A80EE96
:1018C000801A85ED001A11E010EE100A3D49884299
:1018D00008DD80EE201A95ED000AC0EE201A21EEF8
:1018E000810A01E09FED380A85ED000ADFED370A35
:1018F00095ED001A94ED3F0A354961EE200ADFEDBF
:10190000351A00EE880A10EE100A84ED3F0A88426C
:1019100001DDC4ED3F1A304AD4F8FC009FED2F2AB8
:10192000904201D984ED3F2AD4ED3F0A9FED2C3A35
:1019300094ED460ADFED2B2A41EE030A70EEC00A51
:1019400000EEA20A10EE100A84ED460A884201DD7C
:10195000C4ED461AD4F81801904201D984ED462A04
:1019600094ED450AD4ED460A00EE880A9FED1E8AE2
:10197000F0EE480A84ED450A06F034F9B5EEC00AE7
:1019800084ED450AF1EE10FA03D230EE080A84ED38
:10199000450A022E01D184ED430AD4ED460A9FED9B
:1019A000131A9FED130A60EE810A80EE801A84ED0F
:1019B000441ABDEC028B70BD5267693D8FC2753D04
:1019C00020000024CDCCCC3D0000000000409C460F
:1019D00000A08C4500A08C4500A08CC500A08CC543
:1019E0000000FA439A99993EDB0FC940000070420B
:1019F000E0ED2F42FEE70000294A016891423AD00B
:101A0000274A1832914236D0254A3032914232D09C
:101A1000234A483291422ED0214A603291422AD044
:101A20001F4A7832914226D01D4A9032914222D0EC
:101A30001B4AA83291421ED01A4A91421BD0194A21
:101A40001832914217D0174A3032914213D0154ABA
:101A5000483291420FD0134A603291420BD0114A62
:101A60007832914207D00F4A9032914203D00D4A0A
:101A7000A832914211D1CAB21823103AB2FBF3F244
:101A80006FF30901032A02F00703074AD25CC2651B
:101A900000D9091D81650846704721F0FF01F9E76B
:101AA00010000240100402409886000830B5224A17
:101AB000012301689142CAB21BD01F4C1434A142C9
:101AC00017D01D4C2834A14213D01B4C3C34A142EA
:101AD0000FD0194C5034A1420BD0174C6434A142A2
:101AE00007D0154C7834A14203D0134C8C34A1425A
:101AF0000CD11421114C083AB2FBF1F10F4A80329B
:101B000001F01F0504EB8101AB4010E00C4D1824DF
:101B1000103A0D44B2FBF4F1A82D00D80831094A5F
:101B200001F01F0402EB8101064AA34080326030BD
:101B300080E80E0030BD00000854025800580258DA
:101B4000F0FBFDBF0008024010B50279531E072BC1
:101B50002DD8174C0168A1421BD0154C1434A1425A
:101B600017D0134C2834A14213D0114C3C34A1425D
:101B70000FD00F4C5034A1420BD00D4C6434A14215
:101B800007D00B4C7834A14203D0094C8C34A142CD
:101B900003D10849074C443102E00749064C44315F
:101BA00004EB8202C0E91B2101219940416710BD6D
:101BB00008540258FC580258FC08024010B58369CA
:101BC0004FF0C074826A0146002053B1B3F5005F44
:101BD00015D072B1012A0CD0022A0AD0032A09D1E9
:101BE00004E01AB1012A06D0022A03D1C96AC90148
:101BF00000D5012010BDC96AA142FAD010BD002A4B
:101C0000F7D0012AF2D0022AF3D0032AF3D010BD74
:101C10002DE9F04F804E804FDFF8FC911836DFF849
:101C2000F8A148370468856D0AF1300ADFF8ECB195
:101C30004C45DFF8ECC1DFF8ECE16DD0B4426BD07D
:101C4000544569D0BC4267D0DFF8D081A8F11808AC
:101C5000444561D05C455FD064455DD074455BD040
:101C6000DFF8C481444557D0DFF8BC8108F118087B
:101C7000444551D0DFF8B08108F1300844454BD0DD
:101C8000DFF8A48108F14808444545D0DFF8988181
:101C900008F1600844453FD0DFF88C8108F17808EE
:101CA000444539D0DFF8808108F19008444533D0AD
:101CB000DFF8748108F1A80844452DD0DFF86C8165
:101CC000444529D0DFF8648108F11408444523D045
:101CD000DFF8588108F1280844451DD0DFF84C8111
:101CE00008F13C08444517D0DFF8408108F150085E
:101CF000444511D0DFF8348108F1640844450BD025
:101D0000DFF8288108F17808444505D0DFF81C8108
:101D100008F18C08444509D1D0E91948C4F8048079
:101D2000C46E1CB1D0E91C48C4F8048004684C455A
:101D30002ED0B4422CD054452AD0BC4228D0374EA5
:101D4000183EB44224D05C4522D0644520D074456E
:101D50001ED0354EB4421BD0334E1836B44217D085
:101D6000314E3036B44213D02F4E4836B4420FD0E5
:101D70002D4E6036B4420BD02B4E7836B44207D08D
:101D8000294E9036B44203D0274EA836B44215D11E
:101D900090F85C603F2406F01F06B440AC60046815
:101DA000256825F4802525602EE09A600068C160D2
:101DB000BDE8F08F99600068C260F9E71B4EB4423D
:101DC0001BD01A4E1436B44217D0184E2836B442DF
:101DD00013D0164E3C36B4420FD0144E5036B44297
:101DE0000BD0124E6436B44207D0104E7836B4424F
:101DF00003D00E4E8C36B442DAD190F85C600124E8
:101E000006F01F06B4406C60046863608368402B72
:101E10000368CFD1C9E700001000024088000240EB
:101E2000A0000240B80002401004024008540258CA
:101E3000704772B6FEE70000054805490839026898
:101E400042F00202026008688004FCD5704700007E
:101E50000C48025890ED130AD0ED150AB0EE002A96
:101E6000B0EE401ADFED081A00EE821AB1EE402AF9
:101E700080ED190A72EE600A81EE210AC0ED140AA3
:101E800080ED1A0A70470000D7B3DD3F10B5044655
:101E90002DED028B90ED430A05F036FDF0EE400A81
:101EA00094ED430AB0EE608A05F0F4FED4ED231AF7
:101EB00094ED241A61EE880A61EE801A41EE400A20
:101EC00041EE081AC4ED1F0AC4ED201ABDEC028BC6
:101ED00010BD2DE9FE43002705464FF47A783E46B3
:101EE0003C466946D5F818C001AB02AA95F8210016
:101EF000E047BDF80400BDF80010064401200F447F
:101F000001F0E8FD641CA4B24445EAD3B7FBF8F045
:101F1000B6FBF8F100EE100A00EE901AB8EE400A97
:101F2000F8EE600A85ED160AC5ED180ABDE8FE83D5
:101F300090ED021AD0ED031A90ED012AD0ED050ABA
:101F400071EE611AD0ED002A90ED061A22EE212AD8
:101F500062EEA11A42EE000AC0ED041AC0ED050AB5
:101F6000F4EEC10AF1EE10FA02DDF0EE410A08E0EB
:101F7000B1EE410AF4EEC00AF1EE10FA01D2F0EE31
:101F8000400AC0ED050A31EEA00A80ED040AB4EE65
:101F9000C10AF1EE10FA08DCB1EE411AB4EEC10A42
:101FA000F1EE10FA01D3B0EE401A80ED041A70473A
:101FB00010B504462DED028B90ED430A05F0A4FC0C
:101FC000F0EE400A94ED430AB0EE608A05F062FE3E
:101FD00094ED191AD4ED1A1A61EE080A21EE882A36
:101FE00041EE800A01EE402AC4ED1D0A84ED1E2A4E
:101FF000BDEC028B10BD000030B49FED782ADFED00
:10200000782AB6EE003ADFED773A90ED1F0AD0ED70
:10201000201AB0EE631ADFED740A20EE022A60EE99
:10202000222AF5EEC01AB0EE410AF1EE10FA01EEE6
:10203000C32A41EEC32A01DD012400E00024B5EEED
:10204000C02AF1EE10FA01DD012300E00023F5EED5
:10205000C02AF1EE10FA01DD012200E0002204EBBB
:10206000430303EB8202072A11D2DFE802F01004D7
:1020700006080A0C0E00022116E0062128E00121C4
:102080000DE004211AE0032113E005211BE00729DC
:1020900022D2DFE801F02104090E13181D0022EE00
:1020A000200A21EEA01A17E022EE600A22EEE01AC2
:1020B00012E021EEA00A22EEA01A0DE021EEE00AC5
:1020C00022EE601A08E022EEA00A22EE201A03E0B7
:1020D00022EEE00A21EEE01A444A70EE010A10EE08
:1020E000903ADFED431A934207DD80EE202AC1EEDD
:1020F000202A22EE210A22EEA11A70EE210A0729D7
:1021000070EE810A60EE830A30EEC00A30EE411AAA
:1021100028D2DFE801F027040B10151A2100C0EDCA
:10212000100A80ED110A80ED121A1BE000F1400147
:1021300081EC030A16E080ED101AC0ED110A0FE0E1
:1021400080ED101A80ED110A03E080ED100A80ED99
:10215000111AC0ED120A05E0C0ED100A80ED111A47
:1021600080ED120A90ED100A10EE101A914202DD75
:10217000B0EE610A06E0B5EEC00AF1EE10FA01D247
:10218000B0EE630AD0ED110A80ED100A10EE901A3D
:10219000914202DDF0EE610A06E0F5EEC00AF1EED2
:1021A00010FA01D2F0EE630A90ED121AC0ED110A96
:1021B00011EE101A914202DDB0EE611A06E0B5EEA2
:1021C000C01AF1EE10FA01D2B0EE631A80ED121AC5
:1021D00090F82120C16830BC10460847D7B35DBFD6
:1021E000D7B35D3F00000000DABC254400C0FC45C9
:1021F00000C0FC4510B504462DED088BF0EE409A6A
:10220000D0F83401B0F5FA6F0DD2DFED980A401C1A
:10221000C4F8340100EE100AB6EE009AB8EE400A97
:1022200000EE209A01E09FED929AB4F80411B4F800
:10223000080194ED162A01EE101ADFED8E0A00EE69
:10224000100AB8EE411AD4ED181AB8EE400A8A49BD
:1022500031EE421A894A70EE611A21EE200A61EECF
:10226000A00A10EE100A84ED130AC4ED150A884284
:1022700002DDB3EE040A05E010EE100A904201D927
:10228000BBEE040A10EE900A84ED130A884202DDC8
:10229000F3EE040A05E010EE900A904201D9FBEE3D
:1022A000040AC4ED150A2046FFF7D4FD022120469A
:1022B000B0EE690AFFF7AEFA94ED430ADFED708ADB
:1022C000F0EE680A05F08EFCB0EE408AB5EEC08AEA
:1022D000F1EE10FA01D238EE288AB0EE480A05F085
:1022E00013FBF0EE408AB0EE480A05F0D3FC94ED03
:1022F000191AD4ED1A0A94F8300121EE28AA60EEDA
:10230000A8AA401CC0B200EE80AA41EE40AA0A284A
:10231000B0EE408A84ED1DAAC4ED1EAA84F83001F7
:1023200047D3DFED580A94ED4A0AB2EE041A69EE7B
:10233000A00A002084F8300100EE810AD4ED350AAD
:1023400084ED4A0AB4EEE00AF1EE10FA01DDC4EDC4
:102350004A0AD4ED4A1A94ED442A9FED4B0A29EE1D
:10236000811A31EEC2BAD4ED380A2BEE000A40EEE3
:10237000010AB2EE0E0A05F093FBF0EE400AB8EE49
:10238000000A05F069FBDFED410A84ED380A6BEEC7
:10239000200A70EE200AB2EE0E0A05F081FBF0EE84
:1023A000400ABEEE000A05F057FB84ED370A84EDC3
:1023B0002E0A84ED28AAC4ED2FAA9FED350A84EDDC
:1023C0002B9A84ED329A84ED270AB0EE690A04F163
:1023D0009400FFF7ADFDB0EE690A04F1B000FFF71D
:1023E000A7FDD4ED290AB1EE080A94ED301AF4EEF7
:1023F000C00AC4ED230AF1EE10FA84ED241A01DDBF
:1024000084ED230AD4ED231AF9EE080AF4EEE01A5B
:10241000F1EE10FA01D2C4ED230AB4EEC01AF1EEC7
:1024200010FA02DCB0EE410A01E084ED240AB4EEB9
:10243000E00AF1EE10FA01D2C4ED240AD4ED230A29
:1024400094ED240A204620EEA81A60EE880A00EED9
:10245000481A40EE280A84ED1F1AC4ED200AFFF73F
:10246000CBFDBDEC088B002010BD00005839343B7B
:10247000AE20D64028F722BA0000A0410000A0C13B
:10248000DB0FC94000009643A69BC43B3480373B1A
:102490000000000070B50546104AC0EB051000EBC7
:1024A000851002EB8004204684F8215000F006F9E4
:1024B0002168284688472046FFF70BFD61682846BB
:1024C0008847216928468847002084F82200012196
:1024D00084F83811C4F82C0170BD000020030024DA
:1024E000C0EB0011284A01EB801170B502EB8104AA
:1024F00094F83811012901D0012070BD04F58473CE
:10250000A5699A1E911EA84794F8220030B19FED4C
:102510001F0A012829D002282FD130E09FED1C0A84
:10252000F0EE000AC4ED230A84ED240A84ED430A88
:1025300084ED3F0A84ED450A2046FFF7A7FC2046BC
:10254000FFF75AFDD4F82C01401CC4F82C01B0F55B
:102550007A6F12D90021C4F82C119FED0E0A0120C8
:1025600084ED3F0A84F8220007E0204600F014F8CA
:10257000D4F82C01401CC4F82C01002070BD20466A
:10258000FFF738FE0220EDE7200300247EB5763801
:102590000000000058E9DB4310B50446404A2DED29
:1025A000028BB0EE408AB0F80401B4F8081101EED5
:1025B000100A00EE901A94ED162AB8EE411AF8EEC1
:1025C000600AD4ED181A9FED340A31EE421A70EE0B
:1025D000E11A324961EE000A21EE801A10EE900AEB
:1025E000C4ED130A84ED151A884202DDF3EE040AE5
:1025F00005E010EE900A904201D9FBEE040A11EEBC
:10260000100AC4ED130A884202DDB3EE041A05E095
:1026100011EE100A904201D9BBEE041A84ED151A8E
:102620002046FFF717FC01212046B0EE480AFFF7CD
:10263000F1F82046FFF7BCFCD4ED430ADFED191A90
:102640009FED190A9FED191A48EE210A84ED230A1D
:1026500084ED241A9FED161BC4ED430AB7EEE00A81
:1026600005F042FAB7EEC00B84ED430AB5EEC00A9E
:10267000F1EE10FA05D2DFED100A30EE200A84EDFB
:10268000430A2046FFF702FC2046FFF7B5FCBDECED
:10269000028B002010BD000028F722BA0000A041E4
:1026A0000000A0C158E9DB43000000003333434081
:1026B00000000060FB211940DB0FC94010B520224B
:1026C000044696B0FDF797FFE16994F8210088472A
:1026D00021491C226846FDF78EFF1C22694604F141
:1026E0009400FDF788FF1C491C2207A81C31FDF748
:1026F00082FF1C2207A904F1B000FDF77CFF1649F8
:102700001C220EA83831FDF776FF1C220EA904F119
:10271000CC00FDF770FF104A04F1400C9FED0F0A4A
:10272000543200200ECAE0662067C4F88400C4F862
:102730008800A065E06520668CE80E0084ED3F0A05
:1027400084ED460A84ED430A84ED4A0AC4F82C015C
:1027500084F8200016B010BDD886000800000000E4
:10276000F8B50027044615460E46009790F85C0021
:1027700001280BD0012084F85C002046FEF7BEFF44
:102780000100206E04D040F010002DE00220F8BDC2
:1027900020F4885040F002002066206806F4803261
:1027A00005F08043134D1A4383682B401A4342F0CF
:1027B00000428260104A20680EE0009B5B1C009380
:1027C000934209D3206E84F85C7020F0020040F040
:1027D000100020660120F8BD8368DB0FEDD1206E6C
:1027E00020F0020040F001002066084684F85C708A
:1027F000F8BD0000C0FFFE3F00F8C3252DE9F047FB
:102800000F4690F85C109CB0044601294FF0000977
:1028100015D00026DFF8F880012084F85C001896B7
:102820001996216841450ED13A4D0095284603F08E
:10283000D6FD8246206803F0D2FD60B10EE0022092
:102840001CB0BDE8F087206E84F85C6040F020008A
:1028500020660120F4E7BAF1000F09D0216E4FF095
:10286000010941F020002066484684F85C60E7E7F3
:1028700020684146884201D0A84201D1264800E0A4
:10288000264840F61F72D7F800C0254BBCF1000F58
:1028900023D0D0F808C0D7F804802CF4404C4CEA80
:1028A000080CC0F808C0D4F800C08C4501D0AC4575
:1028B00007D18968AB6801F0010103F001031943F6
:1028C00002E0996801F001010029CDD1BD683968A5
:1028D000836829439343194317E0876827F44047E7
:1028E000876027688F4201D0AF4207D18968AB6803
:1028F00001F0010103F00103194302E0996801F0BE
:1029000001010029B0D1816891438160ACE70000EA
:1029100000200240002102400023024000630258D0
:10292000006002582DE9F84F0446DFF8ECB30020B0
:10293000FA4E0090814694F85C000D46F84F01284D
:1029400008D04FF0010A84F85CA0206803F043FD32
:1029500018B18FE20220BDE8F88F286800280FDB4D
:102960002168B1420CD0CA69030327D090FAA0F0C5
:10297000B0FA80F000F01F030AFA03F00243CA61C4
:10298000D5E900124FF00C0C20681F23C1F38461BD
:102990000CEA921C02F01F02604493409140026BCB
:1029A0009A430A430263206803F015FD80462068BD
:1029B00003F00DFD58EA000003D054E1C0F3846039
:1029C000D8E729684FF0040C20680723AA680CEAAE
:1029D000D15CC1F3045160448B408A404169994302
:1029E000114341612068B04204D1C2686969C2F3F1
:1029F000C1020BE0CB4A1268BAEB127F02D0C16869
:102A0000C90605D4C2686969C2F38202520004E0B3
:102A1000C268696902F01002520891402A69042ACA
:102A20005AD02B6800EB8202B04202F1600207D15B
:102A300003F0F8401368084340F00040106008E0DD
:102A4000D2F800C003F0F84008430CF00041014305
:102A500011602068B0421CD12969EA6900EB81004D
:102A6000016E21F080711143016695F820102068F5
:102A70002A6901290AD00021B0429ED100EB8200D0
:102A8000026E22F000720A430266ECE04FF0007121
:102A9000F2E795F821102A69012917D05FF00001AB
:102AA00000EB8200026E22F000420A430266297E99
:102AB00020682A6901290CD00021036902F01F0255
:102AC000914023F4F0420A430261CCE04FF0004110
:102AD000E6E74FF40061F0E7B04273D1002103F064
:102AE00070FC000320684FF000016DD003F069FC1A
:102AF00090FAA0F0B0FA80F12868020369D090FA49
:102B0000A0F0B0FA80F0814204D100222068114682
:102B100003F072FC2068012103F053FC00032068DD
:102B20004FF0010158D003F04CFC90FAA0F0B0FA3D
:102B300080F12868020354D090FAA0F0B0FA80F037
:102B4000814204D120680022012103F055FC206855
:102B5000022103F036FC000320684FF0020143D04D
:102B600003F02FFC90FAA0F0B0FA80F1286802037D
:102B70003FD090FAA0F0B0FA80F0814204D12068F2
:102B80000022022103F038FC2068032103F019FC25
:102B9000000320684FF003012ED003F012FC90FADE
:102BA000A0F0B0FA80F1286802032AD090FAA0F0D1
:102BB000B0FA80F0814256D120680022032103F050
:102BC0001BFC50E020E0FFE703F0FBFBC0F3846157
:102BD00092E7C0F3846096E703F0F3FBC0F38461EF
:102BE000A7E7C0F38460ABE703F0EBFBC0F38461BD
:102BF000BCE7C0F38460C0E703F0E3FBC0F384618B
:102C0000D1E7C0F38460D5E7016E2A7801F0F8417E
:102C1000B1EB826F03D1016E21F0004101662068A3
:102C20002978426E02F0F842B2EB816F03D1416E17
:102C300021F00041416620682978826E02F0F84256
:102C4000B2EB816F03D1816E21F000418166206873
:102C50002978C26E02F0F842B2EB816F03D1C16EE7
:102C600021F00041C1662068816811F0010F52D146
:102C70002D4AB042EB6829680FD1D0F8B0C003F0FC
:102C80001808C1F3130322FA08F20A402CEA030CD5
:102C90004CEA020CC0F8B0C00EE0D0F8C0C003F09F
:102CA0001808C1F3130322FA08F20A402CEA030CB5
:102CB0004CEA020CC0F8C0C0E968594570D11B4805
:102CC0002268DFF86CC0DFF86CB08242DFF868E0A1
:102CD0001A481B4BDFF86C8043D12968614565D0E9
:102CE000B1EB4C0C6DD0714569D0A1F1865CBCF1A3
:102CF000100C75D0DFF850C061456DD0DFF84CC0C6
:102D000061457FD0814273D0994247D010488142BB
:102D100022D1104876E0B3E00000FF47006002587F
:102D2000002102400010005CFFFF0F000020024065
:102D300002003004400020190800900C0008302EDA
:102D400000106032002090362000F0140004002AA9
:102D500000002143000052476E48814251D16E4825
:102D600050E0BA421DD1296861451FD0A1F1066C1F
:102D7000BCF1040C25D0714521D0A1F1865CBCF1D9
:102D8000100C2DD0DFF894C1614525D0DFF890C13B
:102D9000614537D081422BD09942DDD1404631E0A8
:102DA00040E0B2422DD12968614501D1012029E0DE
:102DB000A1F1066CBCF1040C03D0714503D1594854
:102DC00020E058461EE0A1F1865CBCF1100C07D053
:102DD000DFF848C1614505D1534813E000E007E042
:102DE00052480FE0DFF838C161450BD0814201D174
:102DF000184607E04E48414504D0814201D14D4874
:102E000000E00020B2420DD0D16903031AD090FA3D
:102E1000A0F0B0FA80F000BF00F01F030AFA03F040
:102E20000143D161D5F800C0BCF1000F28DA424B54
:102E300020684249DFF808A1984201D0B84203D186
:102E40000A4602E0800EE7E752469268984202F096
:102E5000E07201D0B84209D19D68D7F8088005F02A
:102E6000010508F0010845EA080502E0B56805F02B
:102E7000010555B1216E4FF0010941F02000206697
:102E8000002084F85C00484665E52E4DAC451CD119
:102E900015021AD4B042F3D1984202D0B84200D001
:102EA00051468B6842F4000023F0E07202438A60CE
:102EB000264925480968B1FBF0F04000801C00E07D
:102EC000401E00900028FBD1DAE7214DAC450CD123
:102ED000D5010AD4B042D3D1984202D0B84200D032
:102EE00051468B6842F080700EE01A4DAC45C7D158
:102EF0005502C5D4B042C3D1984202D0B84200D0E6
:102F000051468B6842F4800023F0E07202438A60ED
:102F1000B6E700000000844B0000B84F2000F0141A
:102F20000004002A8000501D0002B025000180210D
:102F30000040C03A0080F03E0020024000230240E2
:102F400000630258000052C7400D0300180000241F
:102F5000000021C3000084CB704770477047000019
:102F60002DE9F8434FF0000504002E46009502D0ED
:102F7000206E18B108E00120BDE8F883204600F07B
:102F800043F9656684F85C5020688168C1F340713C
:102F900019B181688E4A1140816020688168C1F34F
:102FA000007181B981688B4A114041F08051816084
:102FB0008A4989480968B1FBF0F0401C00E0401ED6
:102FC00000900028FBD120688168C1F3007141B9ED
:102FD000216E012641F010012166616E41F0010170
:102FE000616603F0F8F9216EC90600D420B1206EA5
:102FF000012640F01000E0E0206E20F4807040F0E8
:103000000200206620688168754D11F0010F1ED105
:10301000744B754A984201D0904207D199689768DD
:1030200001F0010107F00107394302E0A96801F04E
:10303000010161B9984201D0904201D16B4800E092
:103040006B488268616822F47C120A4382602168BE
:10305000A9421FD1637ED4E90207E26B5B033A43C6
:10306000082805D00C280FD01C280FD018280FD006
:103070005FF0000000F00C0794F8200043EA4703DB
:103080001A4342EA00400FE00420F3E70820F1E78A
:103090001C20EFE7627E94F82030A768E06B5203B3
:1030A00042EA03423843104394F82020012A04D115
:1030B000A28C504B03EB42421043A26A2AB1E36A4E
:1030C00002F47872024343EA0200CA68A9420BD1B3
:1030D000494B1A400243CA602068626B016921F0C3
:1030E00040611143016103E0444B1A400243CA604E
:1030F000206803F070F90746206803F068F9074379
:103100004ED12068A946484506D1217E94F8382042
:10311000890341EA420103E0227E216B41EA8231C8
:10312000C26844F203039A430A43C26094F844001D
:103130000128206803D0016921F0010122E04845FF
:103140000ED1D4E9121CD4E9143502692C4F41EA9E
:103150000C012B433A401943114341F0010111E0A6
:10316000D4E91317B4F848C0DFF89880636D02699A
:1031700008EB0C4C224D394343EA0C036D1E2A40E8
:103180001943114301612068236C026922F07042E7
:103190001A4302612068484502D02046FEF7F6F93E
:1031A0002069012820680BD0016B21F00F01016319
:1031B000206E20F0020040F0010020663046DBE681
:1031C000E269016B521E21F00F011143EFE700008D
:1031D000C0FFFF5FC0FFFF7F400D03001800002409
:1031E00000600258002002400021024000230240FB
:1031F000006302580000FEFF0740F0FF03C0F0FF2D
:103200001FF800FC0100FFFF2DE9F04F87B00646D4
:1032100014216846FDF721FA454B00254348032455
:10322000DFF810814FF40067D6F800C00830196845
:103230004FF480693D4AC4454FF4005A4FF4807BF7
:1032400001F101013BD10129196007D1116841F059
:1032500020011160116801F020010591016841F021
:1032600002010160016801F002010591016841F06D
:10327000200101600068694600F0200005900220EE
:103280008DE831002C4800F037FC009769462B4848
:10329000CDE9014500F030FC294C4FF0090C294BD9
:1032A00020462360C4E901C5C4E90359C4E907B550
:1032B000656231E0B465A66307B0BDE8F08FDFF862
:1032C0008880C445F8D10129196007D1116841F0FF
:1032D00020011160116801F020010591016841F0A1
:1032E000010101600068694600F00100059060205E
:1032F0008DE83100154800F0FFFB114C4FF00A0C2F
:10330000104B7834183B20462360C4E901C5C4E95A
:103310000359C4E907B56562C4E9057A00F0AEF85F
:103320000028C7D0FEF785FDC4E70000D844025846
:103330000800002400200240000402580014025833
:10334000040100242800024000210240000002582D
:103350002DE9F047404E044600689146DFF8FC80B6
:103360008A46B04201D0404501D13D4900E03D4987
:10337000896801F01F0503F02EF800286AD194F83F
:103380005C00012866D001204FF0000784F85C0043
:1033900025B1052D02D0092D00D003E02046FEF70F
:1033A000E5F918B184F85C70BDE8F087216E40F64D
:1033B000016320689943404541F48071216600D043
:1033C0000646864200D01DB9206E20F4801020668B
:1033D000206EC00404D5606E20F00600606600E038
:1033E00067661C20A26D214B1F49D363A36D204A41
:1033F0001A64A36D1F4ADA642268106084F85C7056
:103400002068426842F010024260206888420DD174
:1034100094F83810C26822F0030242EA4102C26006
:103420002068C16841F00101C16005E0C268216BFC
:1034300022F003020A43C26021684B46A06D524647
:10344000403100F0F9F921680B4B8A681A40121DCF
:103450008A60A9E70220A7E700200240002102407D
:1034600000230240006302580060025871160008F1
:10347000F3160008D9160008C0FFFF7F2DE9F05FA2
:10348000044600F04DFC002C07467DD0E24E0221A0
:1034900020684FF00308DFF884934FF00005DFF851
:1034A00080A3B042DFF87CB334D0DB4A18329042BC
:1034B00030D048452ED050452CD058452AD0D94A36
:1034C0001832904226D0D74A3032904222D0D54A84
:1034D000483290421ED0D44A90421BD0D24A183271
:1034E000904217D0D04A3032904213D0CE4A483260
:1034F00090420FD0CC4A603290420BD0CA4A783208
:10350000904207D0C84A9032904203D0C64AA832AF
:1035100090427DD184F83510B04284F834502ED0DA
:10352000BD49183188422AD0484528D0504526D078
:10353000584524D0BB491831884220D0B949303190
:1035400088421CD0B7494831884218D0B6498842D1
:1035500015D0B5491831884211D0B349303188426D
:103560000DD0B1494831884209D0AF496031884215
:1035700005D0AD497831884201D0AB49903101681E
:1035800021F00101016008E025E100BF00F0C8FB67
:10359000C01B052801D920211AE120680068C00756
:1035A000F4D1D4E902032168103418438E4694E81C
:1035B0008410D4E9033809683A4310439B4A40EA2F
:1035C0000C00676918431140103C40EA0800042FC2
:1035D00040EA010003D1D4E90B12114308436168AA
:1035E000A1F12902052A0BD9163A032A08D9083A6B
:1035F000012A05D9083A032A02D97439032901D8C6
:1036000040F48010CEF800002068676A406900E04E
:1036100020E0042F20F0070047EA00070DD1D4E98D
:103620000A01074349B12046FEF7C8FA28B14020F5
:103630006065012184F83510CDE02068476120469F
:10364000FEF7DAF994F85C203F2102F01F02914066
:10365000816055E0764A90421BD0754B14339842F6
:1036600017D0734B2833984213D0714B3C33984298
:103670000FD06F4B503398420BD06D4B6433984250
:1036800007D06B4B7833984203D0694B8C33984208
:103690007ED184F8351084F83450664B0168A268F6
:1036A00001EA030E402A74D0802A73D05FF0000232
:1036B000D4E90378D4E9053142EAD70242EAD808CE
:1036C0005B4AD4E9077C48EAD30848EAD10141EAD9
:1036D000D701524241EA1C11142341EA0E01016054
:1036E00020681044B0FBF3F08000E0652046FEF750
:1036F00083F994F85C20012102F01F02914041609F
:103700002068B04257D044491831884253D04845C8
:1037100051D050454FD058454DD04249183188427C
:1037200049D040493031884245D03E4948318842ED
:1037300041D03D4988423ED03B49183188423AD079
:1037400039493031884236D037494831884232D001
:103750003549603188422ED03349783188422AD0A9
:1037600031499031884226D02F49A831884222D051
:103770002F4988421FD02E49143188421BD02C4932
:103780002831884217D02A493C31884213D002E0C0
:103790001DE017E018E02649503188420BD024493B
:1037A0006431884207D022497831884203D02049C9
:1037B0008C31884229D12046FEF778F9A06880280C
:1037C0000CD00CE0102273E74FF4804270E74021E8
:1037D000616584F835800120BDE8F09F6560216E49
:1037E00020790860D4E9190141606068401E07280B
:1037F00008D82046FEF7A8F9E06E0560D4E91C0160
:10380000416002E0E566256765670120656584F82B
:1038100035000020E0E700001000024040000240B8
:103820005800024070000240100402403F8010FE29
:10383000085402580F00FEFF2DE9F84F04008C4693
:103840004FF00000009014D094F83400012812D0FA
:1038500094F835500120002184F83400012D0CD05B
:10386000C00260650120009084F834100098BDE823
:10387000F88F0120FBE70220F9E78C4D0226206833
:1038800084F83560A8428A4D61658A4E8A4FDFF818
:103890002C82DFF82C92DFF82CA2DFF82CB226D095
:1038A000A84224D0B04222D0B84220D040451ED0F9
:1038B00048451CD050451AD0584518D083498842F5
:1038C00015D082491831884211D080493031884260
:1038D0000DD07E494831884209D07C496031884208
:1038E00005D07A497831884201D078499031016811
:1038F00021F00101016061462046FEF789F96B491C
:10390000206888422CD0A8422AD0B04228D0B842A1
:1039100026D0404524D0484522D0504520D0584597
:103920001ED06A4A90421BD0684A1832904217D083
:10393000664A3032904213D0644A483290420FD0E7
:10394000624A603290420BD0604A7832904207D08F
:103950005E4A9032904203D05C4AA83290420CD129
:10396000026822F01E0242F016020260206C88B14A
:103970002068026842F008020BE0026822F00E02A2
:1039800042F00A020260206C20B12068026842F016
:1039900004020260206888424BD0A84249D0B0425D
:1039A00047D0B84245D0404543D0484541D0504526
:1039B0003FD058453DD0454A90423AD0434A18320C
:1039C000904236D0414A3032904232D03F4A48325B
:1039D00090422ED03D4A603290422AD03B4A783203
:1039E000904226D0394A9032904222D0374AA832AB
:1039F00090421ED0364A90421BD0354A1432904233
:103A000017D0334A2832904213D0314A3C32904288
:103A10000FD02F4A503290420BD02D4A6432904240
:103A200007D02B4A7832904203D0294A8C329042F8
:103A30000DD1206E0268D20303D5026842F4807271
:103A40000260E06E18B1026842F480720260206881
:103A5000884226D0A84224D0B04222D0B84220D0FA
:103A600040451ED048451CD050451AD0584518D066
:103A70001649884215D015491831884211D013498A
:103A8000303188420DD011494831884209D00F4960
:103A90006031884205D00D497831884201D00B4908
:103AA0009031016841F001010160DFE61000024041
:103AB00028000240400002405800024070000240CE
:103AC00088000240A0000240B800024010040240FA
:103AD0000854025870B5044600F022F90546601CEF
:103AE00002D004480078044400F01AF9401BA042B8
:103AF000FAD370BD0C0000242DE9F84F03247A4D51
:103B000000234FF001094FF0B04B4FF00F0AE4E0F3
:103B100009FA03F6324078D00F7907F00307012F36
:103B200001D0022F1AD187684FEA430ED1F80CC09A
:103B300004FA0EF827EA08070CFA0EFC4CEA070C08
:103B4000C0F808C0476891F804C0B743CCF3001C24
:103B50000CFA03FC4CEA070CC0F804C00E79F643DB
:103B6000B6070BD0C6684FEA43088F6804FA08FC12
:103B700026EA0C0607FA08F73743C7600E7906F005
:103B80000306022E12D1DE080F694FEA437C00EBD8
:103B90008606B646366A4FEADC6C0AFA0CF807FA73
:103BA0000CF726EA08063743CEF820700F7906682E
:103BB0004FEA430807F0030704FA08FC07FA08F77E
:103BC00026EA0C06374307604E6816F4403F1CD0C7
:103BD000464E376847F00207376036689F0706F0A1
:103BE0000206009623F0030606F1B046B6463F0FE4
:103BF000D6F80864DFF8F8800AFA07FC404526EAA0
:103C00000C0603D14FF0000C3AE065E0DFF8E4C0A9
:103C1000604502D14FF0010C32E0DFF8DCC06045B6
:103C200002D14FF0020C2BE0DFF8D0C0604502D18A
:103C30004FF0030C24E0DFF8C8C0604502D14FF01C
:103C4000040C1DE0DFF8BCC0604502D14FF0050C4C
:103C500016E0DFF8B4C0604502D14FF0060C0FE06B
:103C6000DFF8A8C0604502D14FF0070C08E0DFF88C
:103C7000A0C0604502D14FF0090C01E04FF00A0CE2
:103C80000CFA07FC4CEA060CCEF808C44F68DBF8C7
:103C90000060FF0226EA020600D516435F46CBF815
:103CA0000060D1F804C0DBF804605FEA8C2C26EADF
:103CB000020600D516437E606E684F6826EA02064B
:103CC000BF0300D516436E602E684F6826EA0206D1
:103CD000FF0300D516432E605B1C0A6832FA03F618
:103CE0007FF416AFBDE8F88F80000058F444025806
:103CF000000002580004025800080258000C025844
:103D0000001002580014025800180258001C0258F3
:103D1000002402580AB1816170470904FBE70000E2
:103D200001488068704700000C0000240248816848
:103D300002781144816070470C000024032010B504
:103D400000F0D4F801F068FA0F4A104914681368BB
:103D5000C4F3032203F00F038A5CC95C02F01F0264
:103D600001F01F01D0400A4A20FA01F1116009490F
:103D700008600F2000F010F808B1012010BD00F01D
:103D800079F8002010BD000018440258C8860008C9
:103D90001C0000241800002470B50D4D044628783E
:103DA000A0B14FF47A71B1FBF0F00A490968B1FB98
:103DB000F0F001F060FD48B9102C07D20022214636
:103DC000501E00F073F800206C6070BD012070BDC3
:103DD0000C00002418000024154BF0B5083B427875
:103DE00013491A600B680A1F23F001030B60436834
:103DF0001360057BC67A827A437B2D07847B45EA74
:103E00000665C77B90F809C0067A90F800E045EA9D
:103E1000C24040EA834040EA444040EA074040EA6A
:103E20000C2040EA460040EA0E000860F0BD0000A9
:103E3000A0ED00E0BFF35F8F044800210368034A50
:103E400023F48033036070321160704724ED00E08A
:103E5000074A40F00100064970321060086840F4DB
:103E600080300860BFF34F8FBFF36F8F7047000043
:103E700024ED00E0054808B5016841F00201016049
:103E8000006800F00200009008BD0000F4440258F1
:103E9000002809DB410900F01F028900012001F11F
:103EA000E0219040C1F80001704700000E4BF0B4D3
:103EB0001B680D46C3F30223C3F10706042E00D985
:103EC0000426191D072901D2002300E0DB1E01246E
:103ED00004FA06F19C40491E2940641E9940144092
:103EE0002143F0BC03F0FEBC0CED00E0064900F0FD
:103EF000070210B54FF6FF040868044B204040EA63
:103F000002201843086010BD0CED00E00000FA0527
:103F1000134970B50A68D243520705D5096801F004
:103F20000701814213D118E00A6822F00702024318
:103F30000A60FFF7F5FE0A4D4FF47A760446083D15
:103F400007E000BFFFF7ECFE001BB04201D90120E3
:103F500070BD2868C0438004F4D4002070BD000008
:103F60000C48025810B501F011F905490968054AD5
:103F7000C1F30211515C01F01F01C84010BD0000E7
:103F800020440258C88600084A4930B5494C0B1DE8
:103F90000A680C3409681D68246802F0030305F000
:103FA0000102C1F30511C4F3CC04002914FB02F291
:103FB00000EE102AF8EE400A76D0414A9FED3E1AF4
:103FC000DFED3E1AB7EE000A23B1012B5AD0022BC7
:103FD00018D15CE0374C283C23689B0612D5394B3E
:103FE000246801EE901A1168C4F3C104F8EE612A46
:103FF000E34001EE903AC1F30801F8EE611A81EE58
:10400000A22A07E002EE101A1168F8EE422A81EEA9
:10401000A22A45E001EE901A1168F8EE611A40EE0E
:10402000811A71EE800A62EE200AC1F3462101EE88
:10403000101AB8EE411A31EE001AC0EE811ABCEE29
:10404000E11A80ED001A1168C1F3064101EE101A61
:10405000B8EE411A31EE001AC0EE811ABCEEE11A38
:1040600080ED011A1168C1F3066101EE101AB8EE75
:10407000411A31EE000A80EE801ABCEEC10A80EDD2
:10408000020A30BD01EE901ADFED0F2A03E001EEC7
:10409000901ADFED0E2A1168F8EE611A82EEA12A5D
:1040A000C1F30801B6E7FFE70021016041608160CC
:1040B00030BD000028440258000000390024744C30
:1040C000304402580090D0030024744A20BCBE4BF8
:1040D000494930B5484C0B1D0A68143409681D68FD
:1040E000246802F00303C5F30012C1F30531C4F3E1
:1040F000CC04002914FB02F200EE102AF8EE400A6C
:1041000075D03F4A9FED3D1AB7EE000A6BB1DFED67
:104110003D1A012B01D0022B64D002EE101A116857
:10412000F8EE422A81EEA22A21E0334C283C236893
:104130009B0612D5344B246801EE901A1168C4F323
:10414000C104F8EE612AE34001EE903AC1F30801A0
:10415000F8EE611A81EEA22A0BE001EE901ADFED73
:104160002B2A00BFF8EE611A116882EEA12AC1F372
:10417000080101EE901A1168F8EE611A40EE811AFA
:1041800071EE800A62EE200AC1F3462101EE101A98
:10419000B8EE411A31EE001AC0EE811ABCEEE11AF7
:1041A00080ED001A1168C1F3064101EE101AB8EE55
:1041B000411A31EE001AC0EE811ABCEEE11A80ED10
:1041C000011A1168C1F3066101EE101AB8EE411A26
:1041D00031EE000A80EE801ABCEEC10A80ED020AC0
:1041E00030BD04E001EE901ADFED092ABAE70021A4
:1041F000016041608160F3E7284402580000003903
:10420000384402580024744A0090D0030024744CAF
:1042100020BCBE4B494930B5484C0B1D0A681C34C4
:1042200009681D68246802F00303C5F30022C1F386
:104230000551C4F3CC04002914FB02F200EE102A4D
:10424000F8EE400A75D03F4A9FED3D1AB7EE000ADE
:104250006BB1DFED3D1A012B01D0022B64D002EED1
:10426000101A1168F8EE422A81EEA22A21E0334C9E
:10427000283C23689B0612D5344B246801EE901A23
:104280001168C4F3C104F8EE612AE34001EE903AEC
:10429000C1F30801F8EE611A81EEA22A0BE001EEEB
:1042A000901ADFED2B2A00BFF8EE611A116882EE3A
:1042B000A12AC1F3080101EE901A1168F8EE611A03
:1042C00040EE811A71EE800A62EE200AC1F34621A7
:1042D00001EE101AB8EE411A31EE001AC0EE811A42
:1042E000BCEEE11A80ED001A1168C1F3064101EE3F
:1042F000101AB8EE411A31EE001AC0EE811ABCEE67
:10430000E11A80ED011A1168C1F3066101EE101A7D
:10431000B8EE411A31EE000A80EE801ABCEEC10AF6
:1043200080ED020A30BD04E001EE901ADFED092AAB
:10433000BAE70021016041608160F3E72844025838
:1043400000000039404402580024744A0090D00311
:104350000024744C20BCBE4B2DE9F04FA14A054609
:10436000DFF87CA280F48070DFF8809289B01311AE
:104370009F4C08439C48AAF104064FF0805C4FF024
:10438000005828D0DFF858B285F480670F430BF14E
:10439000080B4FD085F400670F4360D085F4805739
:1043A0000F4372D085F400570F434FF480394FF418
:1043B000003E69D085F400270F4373D085F4803721
:1043C0000F4370D085F480460E436DD085F40042D3
:1043D0000A436AD02AE0DAF8001001F00701052943
:1043E00024D2DFE801F0F9AA6A259F0006A8FFF7AA
:1043F000CBFD079809B0BDE8F08F6846FFF768FE6F
:104400000098F7E703A8FFF705FF0398F2E7206895
:10441000C0F3C10022FA00F0ECE72268D2056ED5A5
:1044200061456CD11846E5E74145E3D00020E1E75E
:104430004846DFE7DBF8001001F46001B1F5800FBA
:104440003BD005DC00294AD0B1F5001FEED174E065
:10445000B1F5C00FECD0B1F5000FE7D162E0DBF8A9
:10446000001001F0E061B1F1007F26D004DCB1B3AF
:10447000B1F1807FDAD160E0B1F1407FD8D0B1F105
:10448000806FD3D14EE000E01BE0DAF8001001F4B9
:10449000E041B1F5005F10D008DC01B3B1F5805FF9
:1044A000C4D14AE035E058E065E088E0B1F5405F0E
:1044B000BED0B1F5804FB9D134E020688000B5D5C9
:1044C000A0E7DAF8001001F4E021B1F5403F6DD02B
:1044D00006DC61B149457BD07145A7D158E07BE04E
:1044E000B1F5802F66D0B1F5A02F9FD10DE000F07F
:1044F0006FFE7FE76846FFF7EBFD01987AE728E05B
:1045000003A8FFF787FE049874E7216889038AD41B
:104510008CE7DBF8001011F440310ED0494510D083
:10452000714583D13168256801F040516D077FF5F1
:1045300074AF00297FF471AF69E720680001E7D507
:104540005BE720688000E3D503A8FFF763FE0598CA
:1045500050E722689203DBD566E7306810F48030BC
:104560003AD04845D4D120680001D1D56846FFF73C
:10457000AFFD02983EE7DBF8001001F0E041B1F139
:10458000405F13D008DC71B1614521D04145BFD1F6
:1045900020688000B4D449E7B1F1804F0AD0B1F16E
:1045A000A04FB2D042E7FFF7DDFC23E720684007C9
:1045B000AED52CE72068C005AAD533E708E0DAF8C5
:1045C000001011F04051A0D0614505D041459FD168
:1045D000206800018ED429E72068800198D505E77E
:1045E000504402580090D00340787D010080BB0009
:1045F000004402582DE9FE4F0546DFF800A450F8AC
:10460000081B0024FD4FC943019005F128002646F0
:104610000AF1240A009008011DD4686E50B1B0F56B
:10462000801F0CD0B0F5001F0ED0B0F5401F1ED07B
:1046300001240FE0386840F40030386017E001983A
:10464000022102F0AFF903E00098022102F03AFAE9
:1046500004000CD026462888C043C00523D4A86D8A
:1046600005281ED2DFE800F00C11161B1B006A6E35
:10467000DAF8001021F440111143CAF80010EAE7FB
:10468000386840F40030386009E00198002102F0F9
:1046900089F903E00098002102F014FA0446C4B13D
:1046A00000E0012426462888DFF85083C04308F143
:1046B0002C0840052FD4D5F8A400B0F5C00F28D0A1
:1046C00010DCB8B1B0F5001F19D0B0F5800F0FD1D4
:1046D0001AE0AA6DDAF8001021F007011143CAF8B8
:1046E0000010E0E7B0F5000F13D0B0F5200F10D0A8
:1046F00001240FE0386840F40030386009E0019888
:10470000002102F04FF903E00098002102F0DAF9ED
:10471000044694B126462888C043000530D4D5F815
:10472000A800B0F1407F29D011DCC0B1B0F1807F8A
:104730001AD0B0F1007F10D11BE0D5F8A420D8F832
:10474000001021F460011143C8F80010E3E7B0F154
:10475000806F13D0B0F1A06F10D001240FE0386843
:1047600040F40030386009E00198002102F01AF9A5
:1047700003E00098002102F0A5F9044694B1264612
:104780002868DFF878B2C0430BF1200B80011FD4FA
:10479000E86CD8B110280FD0202812D0302815D0BE
:1047A000012414E0D5F8A820D8F8001021F0E06129
:1047B0001143C8F80010E3E7386840F4003038606F
:1047C00004E00198022102F0EDF8044674B1264697
:1047D0002888C043C0042BD4E86DB0F5005F20D01A
:1047E0000DDCA0B1B0F5805F0FD115E0EA6CDBF80D
:1047F000001021F030011143CBF80010E8E7B0F5CC
:10480000405F13D0B0F5804F10D001240FE038681E
:1048100040F40030386009E00198002102F0C2F84D
:1048200003E00098002102F04DF904468CB12646C1
:104830002888C043800429D4286EB0F5403F23D097
:1048400010DC08B3B0F5803F14D0B0F5003F0FD1B5
:1048500015E0EA6DDAF8001021F4E0411143CAF8DE
:104860000010E5E7B0F5802F0ED0B0F5A02F0BD0EB
:1048700001240AE00198012102F094F803E0009875
:10488000012102F01FF9044694B126462888C0434E
:1048900040042AD4D5F8AC00B0F1405F23D010DC3E
:1048A00008B3B0F1805F14D0B0F1005F0FD115E014
:1048B0002A6EDAF8001021F4E0211143CAF8001042
:1048C000E4E7B0F1804F0ED0B0F1A04F0BD001243F
:1048D0000AE00198012102F065F803E00098012147
:1048E00002F0F0F8044674B126462888C04300045C
:1048F0001FD4E86ED8B1B0F1805F0ED0B0F1005F88
:1049000010D0012414E0D5F8AC20D8F8001021F024
:10491000E0411143C8F80010E7E7386840F4003080
:10492000386004E00198012102F03CF8044674B1BB
:1049300026462868C043C0011ED4A86CD0B1012807
:104940000ED0022811D0032814D0012413E0EA6EFF
:10495000DAF8001021F040511143CAF80010E8E7DE
:10496000386840F40030386004E00198022102F019
:1049700019F804466CB126462868C043400255D455
:104980001F48016841F480710160FFF7C9F9814651
:104990000EE0AA6CDBF8001021F003011143CBF804
:1049A0000010E9E7FFF7BCF9A0EB090064283BD849
:1049B00013480068C005F5D5BCBBDFF84090B5F8DA
:1049C000B01009F14409D9F8000001F4407100F475
:1049D0004070884211D0D9F80010D9F8002021F495
:1049E000407142F48032C9F80020D9F8002022F446
:1049F0008032C9F80020C9F8001003E02C440258A6
:104A000000480258D5F8B000B0F5807F19D1FFF703
:104A100087F9029011E000BFFFF782F90299411A6D
:104A200041F28830814208D9032426462878DFF8ED
:104A30001494C043C00721D03CE0D9F8000080079F
:104A4000EAD5D5F8B010C1F301200328FE480DD0F7
:104A5000016821F47C510160B5F8B020D9F800104C
:104A6000C2F30B021143C9F80010DFE7F74A0368ED
:104A700002EA111223F47C511143ECE7A86F1828C5
:104A800016D005DCA0B1082808D0102804D10AE00F
:104A900020280DD028280BD001240AE001980121FC
:104AA00001F080FF03E00098012102F00BF80446BA
:104AB00064B126462878C04380071ED4686F062854
:104AC00019D2DFE800F0160C11161616AA6FD9F8E5
:104AD000001021F038011143C9F80010EAE70198ED
:104AE000012101F05FFF03E00098012101F0EAFFDE
:104AF00004467CB100E0012426462878C0434007E4
:104B00001FD4D5F89000062819D2DFE800F0160C63
:104B1000111616166A6FD9F8001021F0070111431B
:104B2000C9F80010E9E70198012101F03BFF03E01B
:104B30000098012101F0C6FF0446A4B100E0012461
:104B400026462878C04380062BD4D5F88C00B0F1D7
:104B5000405F24D011DC10B3B0F1805F15D0B0F10C
:104B6000005F10D116E0D5F89020D8F8001021F0A1
:104B700007011143C8F80010E3E7B0F1804F0ED0F1
:104B8000B0F1A04F0BD001240AE00198002101F000
:104B900009FF03E00098022101F094FF044694B15C
:104BA00026462878C04340062BD4D5F89800B0F5A7
:104BB000406F24D011DC10B3B0F5806F15D0B0F584
:104BC000006F10D116E0D5F88C20D9F8001021F034
:104BD000E0411143C9F80010E3E7B0F5805F0ED063
:104BE000B0F5A05F0BD001240AE00198002101F08C
:104BF000D9FE03E00098022101F064FF044694B15D
:104C000026462878C04300062BD4D5F89C00B0F582
:104C1000C04F24D011DC10B3B0F5005F15D0B0F553
:104C2000804F10D116E0D5F89820D8F8001021F464
:104C3000E0511143C8F80010E3E7B0F5004F0ED083
:104C4000B0F5204F0BD001240AE00198002101F0BB
:104C5000A9FE03E00098022101F034FF044654B19C
:104C600026462878C04300071ED4D5F88000B0F54A
:104C7000805F0AD00FE0D5F89C20D8F8001021F40E
:104C800060411143C8F80010EBE70098022101F0E1
:104C900019FF00B10126D5F88020D9F8001021F4C1
:104CA00040511143C9F800102878C043C00613D4FE
:104CB000D5F89400B0F5807F05D10098022101F06D
:104CC00001FF00B10126D5F89420D8F8001021F496
:104CD00040711143C8F800102868C043000316D47F
:104CE000D5F8A00038B1B0F5803F09D0B0F5003F4D
:104CF0000BD001240AE00198002101F053FE03E0EB
:104D00000098022101F0DEFE04468CB12646286898
:104D1000C043400322D4D5F88400B0F5801F11D0E1
:104D2000B0F5001F13D0B0F5401F15D0012414E0DA
:104D3000D5F8A020D8F8001021F440311143C8F86C
:104D40000010E4E7386840F40030386004E0009870
:104D5000012101F0B7FE04465CB126462868C04335
:104D6000C0031CD4286D70B1B0F5803F10D0012471
:104D700014E0D5F88420D9F8001021F44011114333
:104D8000C9F80010EAE7386840F40030386004E001
:104D90000198022101F006FE0446DCB1264628688F
:104DA000C043800005D40098022101F08BFE00B1C1
:104DB00001262868C04380031BD4E86FB8B1B0F562
:104DC000807F10D0B0F5007F11D0B0F5407F0ED0BD
:104DD00001240DE02A6DDBF8001021F4803111432D
:104DE000CBF80010DBE7386840F4003038607CB363
:104DF00026462868C043C00207D42A6FDAF800109C
:104E000021F000411143CAF800102868C043800215
:104E100007D4AA6EDAF8001021F080711143CAF8A5
:104E200000102868C043400009D40748016821F4F5
:104E3000004101600168D5F8B42011430160286881
:104E4000C04306E05444025810440258CFFFFF000C
:104E50001DE007D46A6DDBF8001021F040511143CA
:104E6000CBF800102868C043000208D4D5F8882089
:104E7000D9F8001021F440011143C9F80010287935
:104E80000024C04300F00100204309D00EE0EA6F87
:104E9000D9F8001021F440711143C9F80010A8E7B7
:104EA0000198002101F07EFD00B106462879C0433B
:104EB00000F00200204305D10198012101F072FDAC
:104EC00000B106462879C04300F00400204305D114
:104ED0000198022101F066FD00B106462879C04321
:104EE00000F00800204305D10098002101F0EAFD00
:104EF00000B106462879C04300F01000204305D1D8
:104F00000098012101F0DEFD00B106462879C0437A
:104F100000F02000044304D10098022101F0D2FDEA
:104F200000B916B10120BDE8FE8F0020FBE70000AC
:104F30002DE9F05F04000F467ED0DFF83882D8F804
:104F4000000000F00F00B8420CD2D8F8001021F099
:104F50000F013943C8F80010D8F8000000F00F0026
:104F6000B84269D12078844D40070AD52069296864
:104F700001F07001884204D9296821F070010143D1
:104F8000296020787C4E361D00070AD5606931689B
:104F900001F07001884204D9316821F070010143A9
:104FA00031602078C0060AD5A069316801F4E0615B
:104FB000884204D9316821F4E061014331602078EE
:104FC000DFF8B4B180060BF1080B0CD5E169584647
:104FD000DBF8002002F07002914204D9026822F04E
:104FE00070020A430260207880070AD5E0682968C9
:104FF00001F00F01884204D9296821F00F01014313
:1050000029602078C0073ED05B49A268286818391B
:1050100020F47060104328606068022818D00328CC
:1050200019D00968012819D0490700294ADADFF8A0
:1050300048A1AAF1080A00E044E0DAF8002022F0D2
:1050400007020243CAF80020FEF76AFE814612E01A
:1050500009688903E9E709688901E6E7C905E4E722
:10506000FEF75EFEA0EB090141F28830814202D9D1
:105070000320BDE8F09F6168DAF8000000F0380016
:10508000B0EBC10FECD1207880070AD5E068296821
:1050900001F00F01884204D2296821F00F01014379
:1050A0002960D8F80010404601F00F01B9420BD931
:1050B000016821F00F0139430160006800F00F0022
:1050C000B84201D00120D4E7207840070AD52069F2
:1050D000296801F07001884204D2296821F070012A
:1050E00001432960207800070AD56069316801F022
:1050F0007001884204D2316821F0700101433160AF
:105100002078C0060AD5A069316801F4E0618842C0
:1051100004D2316821F4E0610143316020788006D7
:105120000CD5E1695846DBF8002002F0700291428C
:1051300004D2026822F070020A43026000F06CF8A8
:105140000E492A682B68C2F3032203F00F038A5C1E
:10515000C95C02F01F0201F01F01D040084A20FA8A
:1051600001F111600749086007480068BDE8F05F79
:10517000FEF712BE0020005218440258C8860008EC
:105180001C000024180000241000002430B500F09A
:1051900043F80B4A0B490C4B15681468C5F30322FE
:1051A00004F00F048A5C095D02F01F0201F01F0188
:1051B000D040064A20FA01F119601060084630BD5F
:1051C00018440258C88600081C0000241800002457
:1051D00000B5FFF7DBFF05490968054AC1F3021175
:1051E000515C01F01F01C84000BD00001C44025882
:1051F000C886000800B5FFF7C9FF05490968054AD8
:10520000C1F30221515C01F01F01C84000BD000044
:105210001C440258C8860008454970B545480968CD
:10522000434B103B11F0380208D00111082A03D07B
:10523000102A0BD0182A0BD0084670BD19688906B1
:10524000FBD51968C1F3C101C84070BD3A4870BDB3
:105250003749374D18310C1D24350A68096826680E
:105260002D6802F0030406F00102C1F30511C5F335
:10527000CC0515FB02F200EE102AB8EE400AE9B3A5
:105280002F4ADFED2E0AB7EE001A6CB1DFED2D1AB2
:10529000012C01D0022C43D002EE101A1068F8EE57
:1052A000422A81EEA22A1EE01C68A40611D51B68C2
:1052B00001EE901A1168C3F3C103F8EE612AD840D9
:1052C00001EE900AC1F30800F8EE611A81EEA22AFD
:1052D0000BE001EE901ADFED1C2A00BFF8EE611A18
:1052E000106882EEA12AC0F3080001EE900AF8EEE1
:1052F000611A40EE201A31EE810A00E015E022EE3C
:10530000000A1068C0F34620401C00EE900AF8EE38
:10531000600A80EE201ABCEEC10A10EE100A70BDC1
:1053200001EE901ADFED092AD8E7002070BD0000D9
:10533000104402580090D00340787D0100000039ED
:10534000304402580024744A0024744C20BCBE4BE4
:105350002DE9F05F04007DD0FF4F2078FE4D183717
:10536000DFF8F483103DC00748D0D8F80000396852
:1053700000F03800102815D0182803D101F00300E0
:1053800002280FD06068B0F5803F12D010B1B0F5A0
:10539000A02F18D0286820F480302860286820F4D6
:1053A000802009E02868800328D560680028D2D0D2
:1053B00024E0286840F480302860606888B1FEF7F7
:1053C000AFFC064609E0286840F480202860F0E73A
:1053D000FEF7A6FC801B64287ED828688003F7D5DA
:1053E0000CE0FEF79DFC064605E000BFFEF798FCCA
:1053F000801B6428F0D828688003F7D420788007C1
:1054000056D5D8F80000DFF85093396810F038000E
:10541000A9F10C090ED0182801D188070AD0E0683C
:10542000A8B3296821F0190101432960FEF778FC2F
:10543000064628E02868400702D5E06800288AD0A0
:10544000E168286820F0190008432860FEF768FC2E
:10545000064606E0D2E000BFFEF762FC801B022891
:10546000BAD828684007F7D5217CD9F8002022F067
:10547000FE4242EA0161C9F8001019E0FEF750FC53
:10548000801B0228A8D828684007F7D5ECE7FFE77B
:10549000286820F001002860FEF742FC064604E080
:1054A000FEF73EFC801B022896D828684007F7D4F8
:1054B0002078C00646D5D8F80000DFF89C923968FD
:1054C00000F03800A9F10409082812D0182805D1E5
:1054D00001F00300012800E0CEE00AD0E0690028D6
:1054E000286820D040F080002860FEF719FC0646AE
:1054F00015E02868C00502D5E06980287ED194F8BF
:105500002010D9F8002022F07C5242EA0161C9F84B
:10551000001017E0FEF704FC801B0228A0D82868C2
:10552000C005F7D5EBE720F080002860FEF7F8FB18
:10553000064604E0FEF7F4FB801B022890D828689A
:10554000C005F7D42078000729D583486169643005
:1055500000298146016811D041F001010160FEF788
:10556000DFFB064605E000BFFEF7DAFB801B0228E2
:1055700088D8D9F800008007F6D510E021F00101A5
:105580000160FEF7CDFB064605E000BFFEF7C8FB55
:10559000801B022870D8D9F800008007F6D4207844
:1055A000800623D5A0690028286810D040F48050D8
:1055B0002860FEF7B5FB064605E000BFFEF7B0FB2E
:1055C000801B022858D828688004F7D50EE020F404
:1055D00080502860FEF7A4FB064604E0FEF7A0FB1F
:1055E000801B022848D828688004F7D42078400718
:1055F00051D5DFF86891D9F8001000E015E141F4C9
:105600008071C9F80010FEF78BFB064605E000BF6D
:10561000FEF786FB801B64282ED8D9F80000C00551
:10562000F6D54D4EA068603601280AD008B105288D
:1056300013D0306820F001003060306820F00400A2
:1056400002E0306840F001003060A06841F2883A22
:1056500098B1FEF765FB81460AE0306840F004002F
:105660003060EEE7FEF75CFBA0EB0901514503D883
:1056700030688007F6D50EE072E0FEF751FB8146F8
:1056800006E000BFFEF74CFBA0EB0901514567D8CF
:1056900030688007F6D4606A00287CD0DFF8B8A0B4
:1056A000D8F800100AF1200A4FF6F87B0AF1040836
:1056B000C1F3C2010329AAF104096DD002282868A8
:1056C00020F08070286003D0FEF72AFB044681E0BA
:1056D000FEF726FB064604E0FEF722FB801B0228AD
:1056E00075D828688001F7D4E26A40F2F33138684F
:1056F00054F8283F884340EA021018433860217B61
:105700004FF4FE0C22894FF0FE47208A4902267D85
:10571000521E401EA1F5007189B2C2F30802114366
:10572000761E0CEA00400143484607EA0662114330
:10573000CAF80010D9F8001021F00101C9F80010D2
:10574000D8F80030266A23EA0B0343EAC601C8F8FA
:105750000010D9F8001004E0104402580048025824
:1057600035E0A26921F00C011143C9F8001001686D
:10577000E26921F0020111430160016841F48031C6
:105780000160016841F400310160016841F4802149
:105790000160016801E06CE020E041F0010101607E
:1057A000286840F080702860FEF7BAFA044604E0EA
:1057B000FEF7B6FA001B022809D828688001F7D541
:1057C00057E000BFFEF7ACFA001B022802D9032005
:1057D000BDE8F09F28688001F4D44AE039680128C8
:1057E000DAF8000021D0A26A01F0030393421CD131
:1057F000E26AC1F305118A4217D1216BC0F3080296
:10580000491E8A4211D1616BC0F34622491E914262
:105810000BD1A16BC0F30642491E914205D1E16B49
:10582000C0F30660491E814201D00120D0E7A16C7F
:105830004646D8F80000C0F3CC00814219D0D9F810
:1058400000004D4620F00100C9F80000FEF768FA9C
:105850004FEA0007FEF764FAB842FBD0A26C30684A
:1058600020EA0B0040EAC2003060286840F00100E6
:1058700028600020ACE7401EB0F1807F10B501D356
:10588000012010BD4FF0E02460610F21601702F08D
:1058900029F80020A0610721216110BD70477047E1
:1058A00070470000F0B590F83C20012A43D0012257
:1058B00080F83C20D1E90242204ECD6922F44072AA
:1058C0002243D1E9004322F480621A4322F40062A9
:1058D0002243D1E9043422F480521A430B6B22F4A0
:1058E000005222430C8B22F480421A43036822F4B4
:1058F000702242EA0442002422F08052B34242EA7B
:10590000050202D00E4DAB4210D10F8D22F4700C67
:10591000D1E90862CD6A4CEA075121F08071314328
:1059200021F00071114321F000522A435A6480F89B
:105930003C400020F0BD0220F0BD0000000001400E
:1059400000040140F0B590F83C20012A41D0224EDD
:10595000012480F83C40022280F83D2002681F4D5F
:105960005368B242D2F808C001D0AA4203D14F68AE
:1059700023F470033B430F6823F070031F43576009
:105980000268B24219D0B2F1804F16D0144B9A423D
:1059900013D0144B9A4210D0134B9A420DD0AA4206
:1059A0000BD0124B9A4208D0114B9A4205D0114BA2
:1059B0009A4202D0104B9A4204D189682CF080039D
:1059C00019439160002180F83D4080F83C10084662
:1059D000F0BD0220F0BD00000000014000040140C5
:1059E0000004004000080040000C00400018004087
:1059F0000040014000E0004000E4004010B5040019
:105A000003D094F83D0010B107E0012010BD002044
:105A100084F83C00204600F023F8022084F83D0082
:105A20002068211D01F0A6F9012084F8480084F8BF
:105A30003E0084F83F0084F8400084F8410084F878
:105A4000420084F8430084F8440084F8450084F858
:105A5000460084F8470084F83D00002010BD000097
:105A600008B5154A0168154891420ED1016841F008
:105A70000101016000680022114600F00100009061
:105A80001920FEF713FA192010E00D4A914211D1A6
:105A9000016841F00201016000680022114600F037
:105AA000020000902C20FEF701FA2C20BDE80840EF
:105AB000FEF7EEB908BD000000000140F0440258B6
:105AC0000004014090F83D10012901D001207047E9
:105AD0001A4A022180F83D100168CB6843F00103A7
